{
  "_format": "hh-sol-artifact-1",
  "contractName": "MainNFT",
  "sourceName": "contracts/MainNFT.sol",
  "abi": [
    {
      "inputs": [],
      "stateMutability": "nonpayable",
      "type": "constructor"
    },
    {
      "inputs": [],
      "name": "ERC721EnumerableForbiddenBatchMint",
      "type": "error"
    },
    {
      "inputs": [
        {
          "internalType": "address",
          "name": "sender",
          "type": "address"
        },
        {
          "internalType": "uint256",
          "name": "tokenId",
          "type": "uint256"
        },
        {
          "internalType": "address",
          "name": "owner",
          "type": "address"
        }
      ],
      "name": "ERC721IncorrectOwner",
      "type": "error"
    },
    {
      "inputs": [
        {
          "internalType": "address",
          "name": "operator",
          "type": "address"
        },
        {
          "internalType": "uint256",
          "name": "tokenId",
          "type": "uint256"
        }
      ],
      "name": "ERC721InsufficientApproval",
      "type": "error"
    },
    {
      "inputs": [
        {
          "internalType": "address",
          "name": "approver",
          "type": "address"
        }
      ],
      "name": "ERC721InvalidApprover",
      "type": "error"
    },
    {
      "inputs": [
        {
          "internalType": "address",
          "name": "operator",
          "type": "address"
        }
      ],
      "name": "ERC721InvalidOperator",
      "type": "error"
    },
    {
      "inputs": [
        {
          "internalType": "address",
          "name": "owner",
          "type": "address"
        }
      ],
      "name": "ERC721InvalidOwner",
      "type": "error"
    },
    {
      "inputs": [
        {
          "internalType": "address",
          "name": "receiver",
          "type": "address"
        }
      ],
      "name": "ERC721InvalidReceiver",
      "type": "error"
    },
    {
      "inputs": [
        {
          "internalType": "address",
          "name": "sender",
          "type": "address"
        }
      ],
      "name": "ERC721InvalidSender",
      "type": "error"
    },
    {
      "inputs": [
        {
          "internalType": "uint256",
          "name": "tokenId",
          "type": "uint256"
        }
      ],
      "name": "ERC721NonexistentToken",
      "type": "error"
    },
    {
      "inputs": [
        {
          "internalType": "address",
          "name": "owner",
          "type": "address"
        },
        {
          "internalType": "uint256",
          "name": "index",
          "type": "uint256"
        }
      ],
      "name": "ERC721OutOfBoundsIndex",
      "type": "error"
    },
    {
      "inputs": [
        {
          "internalType": "address",
          "name": "owner",
          "type": "address"
        }
      ],
      "name": "OwnableInvalidOwner",
      "type": "error"
    },
    {
      "inputs": [
        {
          "internalType": "address",
          "name": "account",
          "type": "address"
        }
      ],
      "name": "OwnableUnauthorizedAccount",
      "type": "error"
    },
    {
      "anonymous": false,
      "inputs": [
        {
          "indexed": true,
          "internalType": "address",
          "name": "owner",
          "type": "address"
        },
        {
          "indexed": true,
          "internalType": "address",
          "name": "approved",
          "type": "address"
        },
        {
          "indexed": true,
          "internalType": "uint256",
          "name": "tokenId",
          "type": "uint256"
        }
      ],
      "name": "Approval",
      "type": "event"
    },
    {
      "anonymous": false,
      "inputs": [
        {
          "indexed": true,
          "internalType": "address",
          "name": "owner",
          "type": "address"
        },
        {
          "indexed": true,
          "internalType": "address",
          "name": "operator",
          "type": "address"
        },
        {
          "indexed": false,
          "internalType": "bool",
          "name": "approved",
          "type": "bool"
        }
      ],
      "name": "ApprovalForAll",
      "type": "event"
    },
    {
      "anonymous": false,
      "inputs": [
        {
          "indexed": false,
          "internalType": "uint256",
          "name": "_fromTokenId",
          "type": "uint256"
        },
        {
          "indexed": false,
          "internalType": "uint256",
          "name": "_toTokenId",
          "type": "uint256"
        }
      ],
      "name": "BatchMetadataUpdate",
      "type": "event"
    },
    {
      "anonymous": false,
      "inputs": [
        {
          "indexed": true,
          "internalType": "uint256",
          "name": "tokenId",
          "type": "uint256"
        },
        {
          "indexed": true,
          "internalType": "address",
          "name": "receiver",
          "type": "address"
        }
      ],
      "name": "ChildNFTCreated",
      "type": "event"
    },
    {
      "anonymous": false,
      "inputs": [
        {
          "indexed": false,
          "internalType": "uint256",
          "name": "_tokenId",
          "type": "uint256"
        }
      ],
      "name": "MetadataUpdate",
      "type": "event"
    },
    {
      "anonymous": false,
      "inputs": [
        {
          "indexed": true,
          "internalType": "address",
          "name": "previousOwner",
          "type": "address"
        },
        {
          "indexed": true,
          "internalType": "address",
          "name": "newOwner",
          "type": "address"
        }
      ],
      "name": "OwnershipTransferred",
      "type": "event"
    },
    {
      "anonymous": false,
      "inputs": [
        {
          "indexed": true,
          "internalType": "address",
          "name": "from",
          "type": "address"
        },
        {
          "indexed": true,
          "internalType": "address",
          "name": "to",
          "type": "address"
        },
        {
          "indexed": true,
          "internalType": "uint256",
          "name": "tokenId",
          "type": "uint256"
        }
      ],
      "name": "Transfer",
      "type": "event"
    },
    {
      "inputs": [],
      "name": "MAX_AMOUNT",
      "outputs": [
        {
          "internalType": "uint256",
          "name": "",
          "type": "uint256"
        }
      ],
      "stateMutability": "view",
      "type": "function"
    },
    {
      "inputs": [
        {
          "internalType": "address",
          "name": "to",
          "type": "address"
        },
        {
          "internalType": "uint256",
          "name": "tokenId",
          "type": "uint256"
        }
      ],
      "name": "approve",
      "outputs": [],
      "stateMutability": "nonpayable",
      "type": "function"
    },
    {
      "inputs": [
        {
          "internalType": "address",
          "name": "owner",
          "type": "address"
        }
      ],
      "name": "balanceOf",
      "outputs": [
        {
          "internalType": "uint256",
          "name": "",
          "type": "uint256"
        }
      ],
      "stateMutability": "view",
      "type": "function"
    },
    {
      "inputs": [],
      "name": "childNFTContract",
      "outputs": [
        {
          "internalType": "address",
          "name": "",
          "type": "address"
        }
      ],
      "stateMutability": "view",
      "type": "function"
    },
    {
      "inputs": [
        {
          "internalType": "uint256",
          "name": "tokenId",
          "type": "uint256"
        },
        {
          "internalType": "address",
          "name": "receiver",
          "type": "address"
        },
        {
          "internalType": "string",
          "name": "uri",
          "type": "string"
        }
      ],
      "name": "createChildNFTWithURI",
      "outputs": [],
      "stateMutability": "nonpayable",
      "type": "function"
    },
    {
      "inputs": [
        {
          "internalType": "string",
          "name": "ipfsURI",
          "type": "string"
        }
      ],
      "name": "extractIPFSHash",
      "outputs": [
        {
          "internalType": "string",
          "name": "",
          "type": "string"
        }
      ],
      "stateMutability": "pure",
      "type": "function"
    },
    {
      "inputs": [
        {
          "internalType": "uint256",
          "name": "tokenId",
          "type": "uint256"
        }
      ],
      "name": "getApproved",
      "outputs": [
        {
          "internalType": "address",
          "name": "",
          "type": "address"
        }
      ],
      "stateMutability": "view",
      "type": "function"
    },
    {
      "inputs": [
        {
          "internalType": "address",
          "name": "owner",
          "type": "address"
        },
        {
          "internalType": "address",
          "name": "operator",
          "type": "address"
        }
      ],
      "name": "isApprovedForAll",
      "outputs": [
        {
          "internalType": "bool",
          "name": "",
          "type": "bool"
        }
      ],
      "stateMutability": "view",
      "type": "function"
    },
    {
      "inputs": [
        {
          "internalType": "string",
          "name": "uri",
          "type": "string"
        }
      ],
      "name": "mint",
      "outputs": [],
      "stateMutability": "payable",
      "type": "function"
    },
    {
      "inputs": [
        {
          "internalType": "string",
          "name": "ipfsURI",
          "type": "string"
        }
      ],
      "name": "mintWithHttpGateway",
      "outputs": [],
      "stateMutability": "payable",
      "type": "function"
    },
    {
      "inputs": [],
      "name": "name",
      "outputs": [
        {
          "internalType": "string",
          "name": "",
          "type": "string"
        }
      ],
      "stateMutability": "view",
      "type": "function"
    },
    {
      "inputs": [],
      "name": "owner",
      "outputs": [
        {
          "internalType": "address",
          "name": "",
          "type": "address"
        }
      ],
      "stateMutability": "view",
      "type": "function"
    },
    {
      "inputs": [
        {
          "internalType": "uint256",
          "name": "tokenId",
          "type": "uint256"
        }
      ],
      "name": "ownerOf",
      "outputs": [
        {
          "internalType": "address",
          "name": "",
          "type": "address"
        }
      ],
      "stateMutability": "view",
      "type": "function"
    },
    {
      "inputs": [],
      "name": "renounceOwnership",
      "outputs": [],
      "stateMutability": "nonpayable",
      "type": "function"
    },
    {
      "inputs": [
        {
          "internalType": "address",
          "name": "from",
          "type": "address"
        },
        {
          "internalType": "address",
          "name": "to",
          "type": "address"
        },
        {
          "internalType": "uint256",
          "name": "tokenId",
          "type": "uint256"
        }
      ],
      "name": "safeTransferFrom",
      "outputs": [],
      "stateMutability": "nonpayable",
      "type": "function"
    },
    {
      "inputs": [
        {
          "internalType": "address",
          "name": "from",
          "type": "address"
        },
        {
          "internalType": "address",
          "name": "to",
          "type": "address"
        },
        {
          "internalType": "uint256",
          "name": "tokenId",
          "type": "uint256"
        },
        {
          "internalType": "bytes",
          "name": "data",
          "type": "bytes"
        }
      ],
      "name": "safeTransferFrom",
      "outputs": [],
      "stateMutability": "nonpayable",
      "type": "function"
    },
    {
      "inputs": [
        {
          "internalType": "address",
          "name": "operator",
          "type": "address"
        },
        {
          "internalType": "bool",
          "name": "approved",
          "type": "bool"
        }
      ],
      "name": "setApprovalForAll",
      "outputs": [],
      "stateMutability": "nonpayable",
      "type": "function"
    },
    {
      "inputs": [
        {
          "internalType": "address",
          "name": "_childNFTContract",
          "type": "address"
        }
      ],
      "name": "setChildNFTContract",
      "outputs": [],
      "stateMutability": "nonpayable",
      "type": "function"
    },
    {
      "inputs": [
        {
          "internalType": "uint256",
          "name": "tokenId",
          "type": "uint256"
        },
        {
          "internalType": "string",
          "name": "newTokenURI",
          "type": "string"
        }
      ],
      "name": "setSpecificTokenURI",
      "outputs": [],
      "stateMutability": "nonpayable",
      "type": "function"
    },
    {
      "inputs": [
        {
          "internalType": "bytes4",
          "name": "interfaceId",
          "type": "bytes4"
        }
      ],
      "name": "supportsInterface",
      "outputs": [
        {
          "internalType": "bool",
          "name": "",
          "type": "bool"
        }
      ],
      "stateMutability": "view",
      "type": "function"
    },
    {
      "inputs": [],
      "name": "symbol",
      "outputs": [
        {
          "internalType": "string",
          "name": "",
          "type": "string"
        }
      ],
      "stateMutability": "view",
      "type": "function"
    },
    {
      "inputs": [
        {
          "internalType": "uint256",
          "name": "index",
          "type": "uint256"
        }
      ],
      "name": "tokenByIndex",
      "outputs": [
        {
          "internalType": "uint256",
          "name": "",
          "type": "uint256"
        }
      ],
      "stateMutability": "view",
      "type": "function"
    },
    {
      "inputs": [
        {
          "internalType": "address",
          "name": "owner",
          "type": "address"
        },
        {
          "internalType": "uint256",
          "name": "index",
          "type": "uint256"
        }
      ],
      "name": "tokenOfOwnerByIndex",
      "outputs": [
        {
          "internalType": "uint256",
          "name": "",
          "type": "uint256"
        }
      ],
      "stateMutability": "view",
      "type": "function"
    },
    {
      "inputs": [
        {
          "internalType": "uint256",
          "name": "tokenId",
          "type": "uint256"
        }
      ],
      "name": "tokenURI",
      "outputs": [
        {
          "internalType": "string",
          "name": "",
          "type": "string"
        }
      ],
      "stateMutability": "view",
      "type": "function"
    },
    {
      "inputs": [],
      "name": "totalSupply",
      "outputs": [
        {
          "internalType": "uint256",
          "name": "",
          "type": "uint256"
        }
      ],
      "stateMutability": "view",
      "type": "function"
    },
    {
      "inputs": [
        {
          "internalType": "address",
          "name": "from",
          "type": "address"
        },
        {
          "internalType": "address",
          "name": "to",
          "type": "address"
        },
        {
          "internalType": "uint256",
          "name": "tokenId",
          "type": "uint256"
        }
      ],
      "name": "transferFrom",
      "outputs": [],
      "stateMutability": "nonpayable",
      "type": "function"
    },
    {
      "inputs": [
        {
          "internalType": "address",
          "name": "newOwner",
          "type": "address"
        }
      ],
      "name": "transferOwnership",
      "outputs": [],
      "stateMutability": "nonpayable",
      "type": "function"
    },
    {
      "inputs": [],
      "name": "withdraw",
      "outputs": [],
      "stateMutability": "nonpayable",
      "type": "function"
    }
  ],
  "bytecode": "0x60806040526003600c553480156200001657600080fd5b5033604051806040016040528060078152602001664d61696e41424560c81b815250604051806040016040528060048152602001634d41424560e01b8152508160009081620000669190620001b0565b506001620000758282620001b0565b5050506001600160a01b038116620000a757604051631e4fbdf760e01b81526000600482015260240160405180910390fd5b620000b281620000b9565b506200027c565b600b80546001600160a01b038381166001600160a01b0319831681179093556040519116919082907f8be0079c531659141344cd1fd0a4f28419497f9722a3daafe3b4186f6b6457e090600090a35050565b634e487b7160e01b600052604160045260246000fd5b600181811c908216806200013657607f821691505b6020821081036200015757634e487b7160e01b600052602260045260246000fd5b50919050565b601f821115620001ab57600081815260208120601f850160051c81016020861015620001865750805b601f850160051c820191505b81811015620001a75782815560010162000192565b5050505b505050565b81516001600160401b03811115620001cc57620001cc6200010b565b620001e481620001dd845462000121565b846200015d565b602080601f8311600181146200021c5760008415620002035750858301515b600019600386901b1c1916600185901b178555620001a7565b600085815260208120601f198616915b828110156200024d578886015182559484019460019091019084016200022c565b50858210156200026c5787850151600019600388901b60f8161c191681555b5050505050600190811b01905550565b612147806200028c6000396000f3fe6080604052600436106101b75760003560e01c806370a08231116100ec578063c87b56dd1161008a578063e82cbfc811610064578063e82cbfc8146104a5578063e985e9c5146104c5578063f2fde38b146104e5578063f655f04c1461050557600080fd5b8063c87b56dd1461045c578063d40dc8701461047c578063d85d3d271461049257600080fd5b80638da5cb5b116100c65780638da5cb5b146103e957806395d89b4114610407578063a22cb4651461041c578063b88d4fde1461043c57600080fd5b806370a0823114610394578063715018a6146103b45780638265ea47146103c957600080fd5b80632c1d89331161015957806342842e0e1161013357806342842e0e146103145780634ed3c7d5146103345780634f6ccce7146103545780636352211e1461037457600080fd5b80632c1d8933146102bf5780632f745c59146102df5780633ccfd60b146102ff57600080fd5b8063081812fc11610195578063081812fc14610228578063095ea7b31461026057806318160ddd1461028057806323b872dd1461029f57600080fd5b806301ffc9a7146101bc578063050eaf50146101f157806306fdde0314610206575b600080fd5b3480156101c857600080fd5b506101dc6101d7366004611a80565b610525565b60405190151581526020015b60405180910390f35b6102046101ff366004611b49565b610536565b005b34801561021257600080fd5b5061021b6105e3565b6040516101e89190611bce565b34801561023457600080fd5b50610248610243366004611be1565b610675565b6040516001600160a01b0390911681526020016101e8565b34801561026c57600080fd5b5061020461027b366004611c16565b61069e565b34801561028c57600080fd5b506008545b6040519081526020016101e8565b3480156102ab57600080fd5b506102046102ba366004611c40565b6106ad565b3480156102cb57600080fd5b5061021b6102da366004611b49565b610732565b3480156102eb57600080fd5b506102916102fa366004611c16565b610865565b34801561030b57600080fd5b506102046108ca565b34801561032057600080fd5b5061020461032f366004611c40565b610901565b34801561034057600080fd5b50600f54610248906001600160a01b031681565b34801561036057600080fd5b5061029161036f366004611be1565b610921565b34801561038057600080fd5b5061024861038f366004611be1565b61097a565b3480156103a057600080fd5b506102916103af366004611c7c565b610985565b3480156103c057600080fd5b506102046109cd565b3480156103d557600080fd5b506102046103e4366004611c7c565b6109e1565b3480156103f557600080fd5b50600b546001600160a01b0316610248565b34801561041357600080fd5b5061021b610a0b565b34801561042857600080fd5b50610204610437366004611c97565b610a1a565b34801561044857600080fd5b50610204610457366004611cd3565b610a25565b34801561046857600080fd5b5061021b610477366004611be1565b610a3d565b34801561048857600080fd5b50610291600c5481565b6102046104a0366004611b49565b610a48565b3480156104b157600080fd5b506102046104c0366004611d4f565b610ab9565b3480156104d157600080fd5b506101dc6104e0366004611da6565b610cec565b3480156104f157600080fd5b50610204610500366004611c7c565b610d1a565b34801561051157600080fd5b50610204610520366004611dd9565b610d58565b600061053082610e1d565b92915050565b600c54600854106105815760405162461bcd60e51b815260206004820152601060248201526f4e465420697320736f6c64206f75742160801b60448201526064015b60405180910390fd5b600d8054908190600061059383611e36565b91905055506105a23382610e42565b60006105ad83610732565b90506000816040516020016105c29190611e4f565b60405160208183030381529060405290506105dd8382610e5c565b50505050565b6060600080546105f290611e8c565b80601f016020809104026020016040519081016040528092919081815260200182805461061e90611e8c565b801561066b5780601f106106405761010080835404028352916020019161066b565b820191906000526020600020905b81548152906001019060200180831161064e57829003601f168201915b5050505050905090565b600061068082610eac565b506000828152600460205260409020546001600160a01b0316610530565b6106a9828233610ee5565b5050565b6001600160a01b0382166106d757604051633250574960e11b815260006004820152602401610578565b60006106e4838333610ef2565b9050836001600160a01b0316816001600160a01b0316146105dd576040516364283d7b60e01b81526001600160a01b0380861660048301526024820184905282166044820152606401610578565b6060600082905060078151101561074a575090919050565b604080518082019091526007815266697066733a2f2f60c81b6020820152600160005b60078110156107de5783818151811061078857610788611ec6565b602001015160f81c60f81b6001600160f81b0319168382815181106107af576107af611ec6565b01602001516001600160f81b031916146107cc57600091506107de565b806107d681611e36565b91505061076d565b50806107ed5750929392505050565b60408051602081019091526000815260075b845181101561085b578185828151811061081b5761081b611ec6565b602001015160f81c60f81b604051602001610837929190611edc565b6040516020818303038152906040529150808061085390611e36565b9150506107ff565b5095945050505050565b600061087083610985565b82106108a15760405163295f44f760e21b81526001600160a01b038416600482015260248101839052604401610578565b506001600160a01b03919091166000908152600660209081526040808320938352929052205490565b6108d2610f07565b6040514790339082156108fc029083906000818181858888f193505050501580156106a9573d6000803e3d6000fd5b61091c83838360405180602001604052806000815250610a25565b505050565b600061092c60085490565b82106109555760405163295f44f760e21b81526000600482015260248101839052604401610578565b6008828154811061096857610968611ec6565b90600052602060002001549050919050565b600061053082610eac565b60006001600160a01b0382166109b1576040516322718ad960e21b815260006004820152602401610578565b506001600160a01b031660009081526003602052604090205490565b6109d5610f07565b6109df6000610f34565b565b6109e9610f07565b600f80546001600160a01b0319166001600160a01b0392909216919091179055565b6060600180546105f290611e8c565b6106a9338383610f86565b610a308484846106ad565b6105dd3385858585611025565b606061053082611150565b600c5460085410610a8e5760405162461bcd60e51b815260206004820152601060248201526f4e465420697320736f6c64206f75742160801b6044820152606401610578565b600d80549081906000610aa083611e36565b9190505550610aaf3382610e42565b6106a98183610e5c565b610ac283611259565b610b055760405162461bcd60e51b8152602060048201526014602482015273151bdad95b88191bd95cc81b9bdd08195e1a5cdd60621b6044820152606401610578565b33610b0f8461097a565b6001600160a01b031614610b5e5760405162461bcd60e51b81526020600482015260166024820152752cb7ba9036bab9ba1037bbb7103a3432903a37b5b2b760511b6044820152606401610578565b600f546001600160a01b0316610bb65760405162461bcd60e51b815260206004820152601a60248201527f4368696c64204e465420636f6e7472616374206e6f74207365740000000000006044820152606401610578565b600f546040516000916001600160a01b031690610bdd908690869033908790602401611f0b565b60408051601f198184030181529181526020820180516001600160e01b031663da682f3d60e01b17905251610c129190611f47565b6000604051808303816000865af19150503d8060008114610c4f576040519150601f19603f3d011682016040523d82523d6000602084013e610c54565b606091505b5050905080610cb05760405162461bcd60e51b815260206004820152602260248201527f4368696c64204e4654206372656174696f6e207769746820555249206661696c604482015261195960f21b6064820152608401610578565b6040516001600160a01b0384169085907f2cbffa88a077b6f4874d4225e9cf4de15ee94033ef2e7d4d0b1bf128101a3e2b90600090a350505050565b6001600160a01b03918216600090815260056020908152604080832093909416825291909152205460ff1690565b610d22610f07565b6001600160a01b038116610d4c57604051631e4fbdf760e01b815260006004820152602401610578565b610d5581610f34565b50565b610d6182611259565b610dad5760405162461bcd60e51b815260206004820152601c60248201527f55524920736574206f66206e6f6e6578697374656e7420746f6b656e000000006044820152606401610578565b33610db78361097a565b6001600160a01b03161480610dd65750600b546001600160a01b031633145b610e135760405162461bcd60e51b815260206004820152600e60248201526d139bdd08185d5d1a1bdc9a5e995960921b6044820152606401610578565b6106a98282610e5c565b60006001600160e01b03198216632483248360e11b1480610530575061053082611285565b6106a98282604051806020016040528060008152506112aa565b6000828152600a60205260409020610e748282611fa9565b506040518281527ff8e1a15aba9398e019f0b49df1a4fde98ee17ae345cb5f6b5e2c27f5033e8ce79060200160405180910390a15050565b6000818152600260205260408120546001600160a01b03168061053057604051637e27328960e01b815260048101849052602401610578565b61091c83838360016112c2565b6000610eff8484846113c8565b949350505050565b600b546001600160a01b031633146109df5760405163118cdaa760e01b8152336004820152602401610578565b600b80546001600160a01b038381166001600160a01b0319831681179093556040519116919082907f8be0079c531659141344cd1fd0a4f28419497f9722a3daafe3b4186f6b6457e090600090a35050565b6001600160a01b038216610fb857604051630b61174360e31b81526001600160a01b0383166004820152602401610578565b6001600160a01b03838116600081815260056020908152604080832094871680845294825291829020805460ff191686151590811790915591519182527f17307eab39ab6107e8899845ad3d59bd9653f200f220920489ca2b5937696c31910160405180910390a3505050565b6001600160a01b0383163b1561114957604051630a85bd0160e11b81526001600160a01b0384169063150b7a0290611067908890889087908790600401612069565b6020604051808303816000875af19250505080156110a2575060408051601f3d908101601f1916820190925261109f9181019061209c565b60015b61110b573d8080156110d0576040519150601f19603f3d011682016040523d82523d6000602084013e6110d5565b606091505b50805160000361110357604051633250574960e11b81526001600160a01b0385166004820152602401610578565b805181602001fd5b6001600160e01b03198116630a85bd0160e11b1461114757604051633250574960e11b81526001600160a01b0385166004820152602401610578565b505b5050505050565b606061115b82610eac565b506000828152600a60205260408120805461117590611e8c565b80601f01602080910402602001604051908101604052809291908181526020018280546111a190611e8c565b80156111ee5780601f106111c3576101008083540402835291602001916111ee565b820191906000526020600020905b8154815290600101906020018083116111d157829003601f168201915b50505050509050600061120c60408051602081019091526000815290565b9050805160000361121e575092915050565b8151156112505780826040516020016112389291906120b9565b60405160208183030381529060405292505050919050565b610eff84611495565b6000600d54821080156105305750506000908152600260205260409020546001600160a01b0316151590565b60006001600160e01b0319821663780e9d6360e01b148061053057506105308261150a565b6112b4838361155a565b61091c336000858585611025565b80806112d657506001600160a01b03821615155b156113985760006112e684610eac565b90506001600160a01b038316158015906113125750826001600160a01b0316816001600160a01b031614155b801561132557506113238184610cec565b155b1561134e5760405163a9fbf51f60e01b81526001600160a01b0384166004820152602401610578565b81156113965783856001600160a01b0316826001600160a01b03167f8c5be1e5ebec7d5bd14f71427d1e84f3dd0314c0f7b2291e5b200ac8c7c3b92560405160405180910390a45b505b5050600090815260046020526040902080546001600160a01b0319166001600160a01b0392909216919091179055565b6000806113d68585856115bf565b90506001600160a01b0381166114335761142e84600880546000838152600960205260408120829055600182018355919091527ff3f7a9fe364faab93b216da50a3214154f22a0a2b415b23a84c8169e8b636ee30155565b611456565b846001600160a01b0316816001600160a01b0316146114565761145681856116b8565b6001600160a01b0385166114725761146d84611739565b610eff565b846001600160a01b0316816001600160a01b031614610eff57610eff85856117e8565b60606114a082610eac565b5060006114b860408051602081019091526000815290565b905060008151116114d85760405180602001604052806000815250611503565b806114e284611838565b6040516020016114f39291906120b9565b6040516020818303038152906040525b9392505050565b60006001600160e01b031982166380ac58cd60e01b148061153b57506001600160e01b03198216635b5e139f60e01b145b8061053057506301ffc9a760e01b6001600160e01b0319831614610530565b6001600160a01b03821661158457604051633250574960e11b815260006004820152602401610578565b600061159283836000610ef2565b90506001600160a01b0381161561091c576040516339e3563760e11b815260006004820152602401610578565b6000828152600260205260408120546001600160a01b03908116908316156115ec576115ec8184866118cb565b6001600160a01b0381161561162a576116096000856000806112c2565b6001600160a01b038116600090815260036020526040902080546000190190555b6001600160a01b03851615611659576001600160a01b0385166000908152600360205260409020805460010190555b60008481526002602052604080822080546001600160a01b0319166001600160a01b0389811691821790925591518793918516917fddf252ad1be2c89b69c2b068fc378daa952ba7f163c4a11628f55a4df523b3ef91a4949350505050565b60006116c383610985565b6000838152600760209081526040808320546001600160a01b038816845260069092529091209192509081831461171a57600083815260208281526040808320548584528184208190558352600790915290208290555b6000938452600760209081526040808620869055938552525081205550565b60085460009061174b906001906120e8565b6000838152600960205260408120546008805493945090928490811061177357611773611ec6565b90600052602060002001549050806008838154811061179457611794611ec6565b60009182526020808320909101929092558281526009909152604080822084905585825281205560088054806117cc576117cc6120fb565b6001900381819060005260206000200160009055905550505050565b600060016117f584610985565b6117ff91906120e8565b6001600160a01b039093166000908152600660209081526040808320868452825280832085905593825260079052919091209190915550565b606060006118458361192f565b600101905060008167ffffffffffffffff81111561186557611865611a9d565b6040519080825280601f01601f19166020018201604052801561188f576020820181803683370190505b5090508181016020015b600019016f181899199a1a9b1b9c1cb0b131b232b360811b600a86061a8153600a850494508461189957509392505050565b6118d6838383611a07565b61091c576001600160a01b03831661190457604051637e27328960e01b815260048101829052602401610578565b60405163177e802f60e01b81526001600160a01b038316600482015260248101829052604401610578565b60008072184f03e93ff9f4daa797ed6e38ed64bf6a1f0160401b831061196e5772184f03e93ff9f4daa797ed6e38ed64bf6a1f0160401b830492506040015b6d04ee2d6d415b85acef8100000000831061199a576d04ee2d6d415b85acef8100000000830492506020015b662386f26fc1000083106119b857662386f26fc10000830492506010015b6305f5e10083106119d0576305f5e100830492506008015b61271083106119e457612710830492506004015b606483106119f6576064830492506002015b600a83106105305760010192915050565b60006001600160a01b03831615801590610eff5750826001600160a01b0316846001600160a01b03161480611a415750611a418484610cec565b80610eff5750506000908152600460205260409020546001600160a01b03908116911614919050565b6001600160e01b031981168114610d5557600080fd5b600060208284031215611a9257600080fd5b813561150381611a6a565b634e487b7160e01b600052604160045260246000fd5b600067ffffffffffffffff80841115611ace57611ace611a9d565b604051601f8501601f19908116603f01168101908282118183101715611af657611af6611a9d565b81604052809350858152868686011115611b0f57600080fd5b858560208301376000602087830101525050509392505050565b600082601f830112611b3a57600080fd5b61150383833560208501611ab3565b600060208284031215611b5b57600080fd5b813567ffffffffffffffff811115611b7257600080fd5b610eff84828501611b29565b60005b83811015611b99578181015183820152602001611b81565b50506000910152565b60008151808452611bba816020860160208601611b7e565b601f01601f19169290920160200192915050565b6020815260006115036020830184611ba2565b600060208284031215611bf357600080fd5b5035919050565b80356001600160a01b0381168114611c1157600080fd5b919050565b60008060408385031215611c2957600080fd5b611c3283611bfa565b946020939093013593505050565b600080600060608486031215611c5557600080fd5b611c5e84611bfa565b9250611c6c60208501611bfa565b9150604084013590509250925092565b600060208284031215611c8e57600080fd5b61150382611bfa565b60008060408385031215611caa57600080fd5b611cb383611bfa565b915060208301358015158114611cc857600080fd5b809150509250929050565b60008060008060808587031215611ce957600080fd5b611cf285611bfa565b9350611d0060208601611bfa565b925060408501359150606085013567ffffffffffffffff811115611d2357600080fd5b8501601f81018713611d3457600080fd5b611d4387823560208401611ab3565b91505092959194509250565b600080600060608486031215611d6457600080fd5b83359250611d7460208501611bfa565b9150604084013567ffffffffffffffff811115611d9057600080fd5b611d9c86828701611b29565b9150509250925092565b60008060408385031215611db957600080fd5b611dc283611bfa565b9150611dd060208401611bfa565b90509250929050565b60008060408385031215611dec57600080fd5b82359150602083013567ffffffffffffffff811115611e0a57600080fd5b611e1685828601611b29565b9150509250929050565b634e487b7160e01b600052601160045260246000fd5b600060018201611e4857611e48611e20565b5060010190565b7468747470733a2f2f697066732e696f2f697066732f60581b815260008251611e7f816015850160208701611b7e565b9190910160150192915050565b600181811c90821680611ea057607f821691505b602082108103611ec057634e487b7160e01b600052602260045260246000fd5b50919050565b634e487b7160e01b600052603260045260246000fd5b60008351611eee818460208801611b7e565b6001600160f81b0319939093169190920190815260010192915050565b8481526001600160a01b03848116602083015283166040820152608060608201819052600090611f3d90830184611ba2565b9695505050505050565b60008251611f59818460208701611b7e565b9190910192915050565b601f82111561091c57600081815260208120601f850160051c81016020861015611f8a5750805b601f850160051c820191505b8181101561114757828155600101611f96565b815167ffffffffffffffff811115611fc357611fc3611a9d565b611fd781611fd18454611e8c565b84611f63565b602080601f83116001811461200c5760008415611ff45750858301515b600019600386901b1c1916600185901b178555611147565b600085815260208120601f198616915b8281101561203b5788860151825594840194600190910190840161201c565b50858210156120595787850151600019600388901b60f8161c191681555b5050505050600190811b01905550565b6001600160a01b0385811682528416602082015260408101839052608060608201819052600090611f3d90830184611ba2565b6000602082840312156120ae57600080fd5b815161150381611a6a565b600083516120cb818460208801611b7e565b8351908301906120df818360208801611b7e565b01949350505050565b8181038181111561053057610530611e20565b634e487b7160e01b600052603160045260246000fdfea2646970667358221220e96f191924f5e3a234686037d9a770b041c720a1d279e579665bd2ba7ca3a11c64736f6c63430008140033",
  "linkReferences": {},
  "deployedLinkReferences": {}
}