{
  "_format": "hh-sol-artifact-1",
  "contractName": "ChildNFT",
  "sourceName": "contracts/ChildNFT.sol",
  "abi": [
    {
      "inputs": [],
      "stateMutability": "nonpayable",
      "type": "constructor"
    },
    {
      "inputs": [],
      "name": "ERC721EnumerableForbiddenBatchMint",
      "type": "error"
    },
    {
      "inputs": [
        {
          "internalType": "address",
          "name": "sender",
          "type": "address"
        },
        {
          "internalType": "uint256",
          "name": "tokenId",
          "type": "uint256"
        },
        {
          "internalType": "address",
          "name": "owner",
          "type": "address"
        }
      ],
      "name": "ERC721IncorrectOwner",
      "type": "error"
    },
    {
      "inputs": [
        {
          "internalType": "address",
          "name": "operator",
          "type": "address"
        },
        {
          "internalType": "uint256",
          "name": "tokenId",
          "type": "uint256"
        }
      ],
      "name": "ERC721InsufficientApproval",
      "type": "error"
    },
    {
      "inputs": [
        {
          "internalType": "address",
          "name": "approver",
          "type": "address"
        }
      ],
      "name": "ERC721InvalidApprover",
      "type": "error"
    },
    {
      "inputs": [
        {
          "internalType": "address",
          "name": "operator",
          "type": "address"
        }
      ],
      "name": "ERC721InvalidOperator",
      "type": "error"
    },
    {
      "inputs": [
        {
          "internalType": "address",
          "name": "owner",
          "type": "address"
        }
      ],
      "name": "ERC721InvalidOwner",
      "type": "error"
    },
    {
      "inputs": [
        {
          "internalType": "address",
          "name": "receiver",
          "type": "address"
        }
      ],
      "name": "ERC721InvalidReceiver",
      "type": "error"
    },
    {
      "inputs": [
        {
          "internalType": "address",
          "name": "sender",
          "type": "address"
        }
      ],
      "name": "ERC721InvalidSender",
      "type": "error"
    },
    {
      "inputs": [
        {
          "internalType": "uint256",
          "name": "tokenId",
          "type": "uint256"
        }
      ],
      "name": "ERC721NonexistentToken",
      "type": "error"
    },
    {
      "inputs": [
        {
          "internalType": "address",
          "name": "owner",
          "type": "address"
        },
        {
          "internalType": "uint256",
          "name": "index",
          "type": "uint256"
        }
      ],
      "name": "ERC721OutOfBoundsIndex",
      "type": "error"
    },
    {
      "inputs": [
        {
          "internalType": "address",
          "name": "owner",
          "type": "address"
        }
      ],
      "name": "OwnableInvalidOwner",
      "type": "error"
    },
    {
      "inputs": [
        {
          "internalType": "address",
          "name": "account",
          "type": "address"
        }
      ],
      "name": "OwnableUnauthorizedAccount",
      "type": "error"
    },
    {
      "anonymous": false,
      "inputs": [
        {
          "indexed": true,
          "internalType": "address",
          "name": "owner",
          "type": "address"
        },
        {
          "indexed": true,
          "internalType": "address",
          "name": "approved",
          "type": "address"
        },
        {
          "indexed": true,
          "internalType": "uint256",
          "name": "tokenId",
          "type": "uint256"
        }
      ],
      "name": "Approval",
      "type": "event"
    },
    {
      "anonymous": false,
      "inputs": [
        {
          "indexed": true,
          "internalType": "address",
          "name": "owner",
          "type": "address"
        },
        {
          "indexed": true,
          "internalType": "address",
          "name": "operator",
          "type": "address"
        },
        {
          "indexed": false,
          "internalType": "bool",
          "name": "approved",
          "type": "bool"
        }
      ],
      "name": "ApprovalForAll",
      "type": "event"
    },
    {
      "anonymous": false,
      "inputs": [
        {
          "indexed": false,
          "internalType": "uint256",
          "name": "_fromTokenId",
          "type": "uint256"
        },
        {
          "indexed": false,
          "internalType": "uint256",
          "name": "_toTokenId",
          "type": "uint256"
        }
      ],
      "name": "BatchMetadataUpdate",
      "type": "event"
    },
    {
      "anonymous": false,
      "inputs": [
        {
          "indexed": true,
          "internalType": "uint256",
          "name": "parentTokenId",
          "type": "uint256"
        },
        {
          "indexed": true,
          "internalType": "uint256",
          "name": "childTokenId",
          "type": "uint256"
        },
        {
          "indexed": true,
          "internalType": "address",
          "name": "receiver",
          "type": "address"
        }
      ],
      "name": "ChildTokenMinted",
      "type": "event"
    },
    {
      "anonymous": false,
      "inputs": [
        {
          "indexed": false,
          "internalType": "uint256",
          "name": "_tokenId",
          "type": "uint256"
        }
      ],
      "name": "MetadataUpdate",
      "type": "event"
    },
    {
      "anonymous": false,
      "inputs": [
        {
          "indexed": true,
          "internalType": "address",
          "name": "previousOwner",
          "type": "address"
        },
        {
          "indexed": true,
          "internalType": "address",
          "name": "newOwner",
          "type": "address"
        }
      ],
      "name": "OwnershipTransferred",
      "type": "event"
    },
    {
      "anonymous": false,
      "inputs": [
        {
          "indexed": true,
          "internalType": "address",
          "name": "from",
          "type": "address"
        },
        {
          "indexed": true,
          "internalType": "address",
          "name": "to",
          "type": "address"
        },
        {
          "indexed": true,
          "internalType": "uint256",
          "name": "tokenId",
          "type": "uint256"
        }
      ],
      "name": "Transfer",
      "type": "event"
    },
    {
      "inputs": [
        {
          "internalType": "address",
          "name": "to",
          "type": "address"
        },
        {
          "internalType": "uint256",
          "name": "tokenId",
          "type": "uint256"
        }
      ],
      "name": "approve",
      "outputs": [],
      "stateMutability": "nonpayable",
      "type": "function"
    },
    {
      "inputs": [
        {
          "internalType": "address",
          "name": "owner",
          "type": "address"
        }
      ],
      "name": "balanceOf",
      "outputs": [
        {
          "internalType": "uint256",
          "name": "",
          "type": "uint256"
        }
      ],
      "stateMutability": "view",
      "type": "function"
    },
    {
      "inputs": [
        {
          "internalType": "string",
          "name": "ipfsURI",
          "type": "string"
        }
      ],
      "name": "extractIPFSHash",
      "outputs": [
        {
          "internalType": "string",
          "name": "",
          "type": "string"
        }
      ],
      "stateMutability": "pure",
      "type": "function"
    },
    {
      "inputs": [
        {
          "internalType": "uint256",
          "name": "tokenId",
          "type": "uint256"
        }
      ],
      "name": "getApproved",
      "outputs": [
        {
          "internalType": "address",
          "name": "",
          "type": "address"
        }
      ],
      "stateMutability": "view",
      "type": "function"
    },
    {
      "inputs": [
        {
          "internalType": "uint256",
          "name": "childTokenId",
          "type": "uint256"
        }
      ],
      "name": "getChildCreator",
      "outputs": [
        {
          "internalType": "address",
          "name": "",
          "type": "address"
        }
      ],
      "stateMutability": "view",
      "type": "function"
    },
    {
      "inputs": [
        {
          "internalType": "uint256",
          "name": "childTokenId",
          "type": "uint256"
        }
      ],
      "name": "getParentTokenId",
      "outputs": [
        {
          "internalType": "uint256",
          "name": "",
          "type": "uint256"
        }
      ],
      "stateMutability": "view",
      "type": "function"
    },
    {
      "inputs": [
        {
          "internalType": "address",
          "name": "owner",
          "type": "address"
        },
        {
          "internalType": "address",
          "name": "operator",
          "type": "address"
        }
      ],
      "name": "isApprovedForAll",
      "outputs": [
        {
          "internalType": "bool",
          "name": "",
          "type": "bool"
        }
      ],
      "stateMutability": "view",
      "type": "function"
    },
    {
      "inputs": [],
      "name": "mainNFTContract",
      "outputs": [
        {
          "internalType": "address",
          "name": "",
          "type": "address"
        }
      ],
      "stateMutability": "view",
      "type": "function"
    },
    {
      "inputs": [
        {
          "internalType": "uint256",
          "name": "parentTokenId",
          "type": "uint256"
        },
        {
          "internalType": "address",
          "name": "receiver",
          "type": "address"
        },
        {
          "internalType": "address",
          "name": "creator",
          "type": "address"
        },
        {
          "internalType": "string",
          "name": "uri",
          "type": "string"
        }
      ],
      "name": "mintChildNFTWithURI",
      "outputs": [],
      "stateMutability": "nonpayable",
      "type": "function"
    },
    {
      "inputs": [],
      "name": "name",
      "outputs": [
        {
          "internalType": "string",
          "name": "",
          "type": "string"
        }
      ],
      "stateMutability": "view",
      "type": "function"
    },
    {
      "inputs": [],
      "name": "owner",
      "outputs": [
        {
          "internalType": "address",
          "name": "",
          "type": "address"
        }
      ],
      "stateMutability": "view",
      "type": "function"
    },
    {
      "inputs": [
        {
          "internalType": "uint256",
          "name": "tokenId",
          "type": "uint256"
        }
      ],
      "name": "ownerOf",
      "outputs": [
        {
          "internalType": "address",
          "name": "",
          "type": "address"
        }
      ],
      "stateMutability": "view",
      "type": "function"
    },
    {
      "inputs": [],
      "name": "renounceOwnership",
      "outputs": [],
      "stateMutability": "nonpayable",
      "type": "function"
    },
    {
      "inputs": [
        {
          "internalType": "address",
          "name": "from",
          "type": "address"
        },
        {
          "internalType": "address",
          "name": "to",
          "type": "address"
        },
        {
          "internalType": "uint256",
          "name": "tokenId",
          "type": "uint256"
        }
      ],
      "name": "safeTransferFrom",
      "outputs": [],
      "stateMutability": "nonpayable",
      "type": "function"
    },
    {
      "inputs": [
        {
          "internalType": "address",
          "name": "from",
          "type": "address"
        },
        {
          "internalType": "address",
          "name": "to",
          "type": "address"
        },
        {
          "internalType": "uint256",
          "name": "tokenId",
          "type": "uint256"
        },
        {
          "internalType": "bytes",
          "name": "data",
          "type": "bytes"
        }
      ],
      "name": "safeTransferFrom",
      "outputs": [],
      "stateMutability": "nonpayable",
      "type": "function"
    },
    {
      "inputs": [
        {
          "internalType": "address",
          "name": "operator",
          "type": "address"
        },
        {
          "internalType": "bool",
          "name": "approved",
          "type": "bool"
        }
      ],
      "name": "setApprovalForAll",
      "outputs": [],
      "stateMutability": "nonpayable",
      "type": "function"
    },
    {
      "inputs": [
        {
          "internalType": "string",
          "name": "newURI",
          "type": "string"
        }
      ],
      "name": "setChildTokenURI",
      "outputs": [],
      "stateMutability": "nonpayable",
      "type": "function"
    },
    {
      "inputs": [
        {
          "internalType": "address",
          "name": "_mainNFTContract",
          "type": "address"
        }
      ],
      "name": "setMainNFTContract",
      "outputs": [],
      "stateMutability": "nonpayable",
      "type": "function"
    },
    {
      "inputs": [
        {
          "internalType": "uint256",
          "name": "tokenId",
          "type": "uint256"
        },
        {
          "internalType": "string",
          "name": "newTokenURI",
          "type": "string"
        }
      ],
      "name": "setSpecificTokenURI",
      "outputs": [],
      "stateMutability": "nonpayable",
      "type": "function"
    },
    {
      "inputs": [
        {
          "internalType": "bytes4",
          "name": "interfaceId",
          "type": "bytes4"
        }
      ],
      "name": "supportsInterface",
      "outputs": [
        {
          "internalType": "bool",
          "name": "",
          "type": "bool"
        }
      ],
      "stateMutability": "view",
      "type": "function"
    },
    {
      "inputs": [],
      "name": "symbol",
      "outputs": [
        {
          "internalType": "string",
          "name": "",
          "type": "string"
        }
      ],
      "stateMutability": "view",
      "type": "function"
    },
    {
      "inputs": [
        {
          "internalType": "uint256",
          "name": "index",
          "type": "uint256"
        }
      ],
      "name": "tokenByIndex",
      "outputs": [
        {
          "internalType": "uint256",
          "name": "",
          "type": "uint256"
        }
      ],
      "stateMutability": "view",
      "type": "function"
    },
    {
      "inputs": [
        {
          "internalType": "address",
          "name": "owner",
          "type": "address"
        },
        {
          "internalType": "uint256",
          "name": "index",
          "type": "uint256"
        }
      ],
      "name": "tokenOfOwnerByIndex",
      "outputs": [
        {
          "internalType": "uint256",
          "name": "",
          "type": "uint256"
        }
      ],
      "stateMutability": "view",
      "type": "function"
    },
    {
      "inputs": [
        {
          "internalType": "uint256",
          "name": "tokenId",
          "type": "uint256"
        }
      ],
      "name": "tokenURI",
      "outputs": [
        {
          "internalType": "string",
          "name": "",
          "type": "string"
        }
      ],
      "stateMutability": "view",
      "type": "function"
    },
    {
      "inputs": [],
      "name": "totalSupply",
      "outputs": [
        {
          "internalType": "uint256",
          "name": "",
          "type": "uint256"
        }
      ],
      "stateMutability": "view",
      "type": "function"
    },
    {
      "inputs": [
        {
          "internalType": "address",
          "name": "from",
          "type": "address"
        },
        {
          "internalType": "address",
          "name": "to",
          "type": "address"
        },
        {
          "internalType": "uint256",
          "name": "tokenId",
          "type": "uint256"
        }
      ],
      "name": "transferFrom",
      "outputs": [],
      "stateMutability": "nonpayable",
      "type": "function"
    },
    {
      "inputs": [
        {
          "internalType": "address",
          "name": "newOwner",
          "type": "address"
        }
      ],
      "name": "transferOwnership",
      "outputs": [],
      "stateMutability": "nonpayable",
      "type": "function"
    }
  ],
  "bytecode": "0x60806040523480156200001157600080fd5b5033604051806040016040528060088152602001674368696c6441424560c01b815250604051806040016040528060048152602001634341424560e01b8152508160009081620000629190620001ac565b506001620000718282620001ac565b5050506001600160a01b038116620000a357604051631e4fbdf760e01b81526000600482015260240160405180910390fd5b620000ae81620000b5565b5062000278565b600b80546001600160a01b038381166001600160a01b0319831681179093556040519116919082907f8be0079c531659141344cd1fd0a4f28419497f9722a3daafe3b4186f6b6457e090600090a35050565b634e487b7160e01b600052604160045260246000fd5b600181811c908216806200013257607f821691505b6020821081036200015357634e487b7160e01b600052602260045260246000fd5b50919050565b601f821115620001a757600081815260208120601f850160051c81016020861015620001825750805b601f850160051c820191505b81811015620001a3578281556001016200018e565b5050505b505050565b81516001600160401b03811115620001c857620001c862000107565b620001e081620001d984546200011d565b8462000159565b602080601f831160018114620002185760008415620001ff5750858301515b600019600386901b1c1916600185901b178555620001a3565b600085815260208120601f198616915b82811015620002495788860151825594840194600190910190840162000228565b5085821015620002685787850151600019600388901b60f8161c191681555b5050505050600190811b01905550565b611e4b80620002886000396000f3fe608060405234801561001057600080fd5b50600436106101a95760003560e01c806370a08231116100f9578063cfa651f311610097578063e59b355b11610071578063e59b355b1461037b578063e985e9c51461038e578063f2fde38b146103a1578063f655f04c146103b457600080fd5b8063cfa651f314610342578063d738870e14610355578063da682f3d1461036857600080fd5b806395d89b41116100d357806395d89b4114610301578063a22cb46514610309578063b88d4fde1461031c578063c87b56dd1461032f57600080fd5b806370a08231146102d5578063715018a6146102e85780638da5cb5b146102f057600080fd5b806323b872dd1161016657806342842e0e1161014057806342842e0e146102895780634f6ccce71461029c5780635ad317b7146102af5780636352211e146102c257600080fd5b806323b872dd146102505780632c1d8933146102635780632f745c591461027657600080fd5b806301ffc9a7146101ae57806306fdde03146101d6578063081812fc146101eb578063095ea7b31461021657806318160ddd1461022b5780631a83fa4c1461023d575b600080fd5b6101c16101bc3660046117cd565b6103c7565b60405190151581526020015b60405180910390f35b6101de6103d8565b6040516101cd919061183a565b6101fe6101f936600461184d565b61046a565b6040516001600160a01b0390911681526020016101cd565b610229610224366004611882565b610493565b005b6008545b6040519081526020016101cd565b61022961024b3660046118ac565b6104a2565b61022961025e3660046118c7565b6104cc565b6101de6102713660046119af565b61055c565b61022f610284366004611882565b61068f565b6102296102973660046118c7565b6106f4565b61022f6102aa36600461184d565b610714565b600e546101fe906001600160a01b031681565b6101fe6102d036600461184d565b61076d565b61022f6102e33660046118ac565b610778565b6102296107c0565b600b546001600160a01b03166101fe565b6101de6107d4565b6102296103173660046119e4565b6107e3565b61022961032a366004611a20565b6107ee565b6101de61033d36600461184d565b610806565b61022f61035036600461184d565b610811565b6102296103633660046119af565b61087b565b610229610376366004611a9c565b61088f565b6101fe61038936600461184d565b6109c0565b6101c161039c366004611af8565b610a33565b6102296103af3660046118ac565b610a61565b6102296103c2366004611b2b565b610a9f565b60006103d282610b6a565b92915050565b6060600080546103e790611b72565b80601f016020809104026020016040519081016040528092919081815260200182805461041390611b72565b80156104605780601f1061043557610100808354040283529160200191610460565b820191906000526020600020905b81548152906001019060200180831161044357829003601f168201915b5050505050905090565b600061047582610b8f565b506000828152600460205260409020546001600160a01b03166103d2565b61049e828233610bc8565b5050565b6104aa610bd5565b600e80546001600160a01b0319166001600160a01b0392909216919091179055565b6001600160a01b0382166104fb57604051633250574960e11b8152600060048201526024015b60405180910390fd5b6000610508838333610c02565b9050836001600160a01b0316816001600160a01b031614610556576040516364283d7b60e01b81526001600160a01b03808616600483015260248201849052821660448201526064016104f2565b50505050565b60606000829050600781511015610574575090919050565b604080518082019091526007815266697066733a2f2f60c81b6020820152600160005b6007811015610608578381815181106105b2576105b2611bac565b602001015160f81c60f81b6001600160f81b0319168382815181106105d9576105d9611bac565b01602001516001600160f81b031916146105f65760009150610608565b8061060081611bd8565b915050610597565b50806106175750929392505050565b60408051602081019091526000815260075b8451811015610685578185828151811061064557610645611bac565b602001015160f81c60f81b604051602001610661929190611bf1565b6040516020818303038152906040529150808061067d90611bd8565b915050610629565b5095945050505050565b600061069a83610778565b82106106cb5760405163295f44f760e21b81526001600160a01b0384166004820152602481018390526044016104f2565b506001600160a01b03919091166000908152600660209081526040808320938352929052205490565b61070f838383604051806020016040528060008152506107ee565b505050565b600061071f60085490565b82106107485760405163295f44f760e21b815260006004820152602481018390526044016104f2565b6008828154811061075b5761075b611bac565b90600052602060002001549050919050565b60006103d282610b8f565b60006001600160a01b0382166107a4576040516322718ad960e21b8152600060048201526024016104f2565b506001600160a01b031660009081526003602052604090205490565b6107c8610bd5565b6107d26000610c17565b565b6060600180546103e790611b72565b61049e338383610c69565b6107f98484846104cc565b6105563385858585610d08565b60606103d282610e33565b600061081c82610f3c565b6108685760405162461bcd60e51b815260206004820152601a60248201527f4368696c6420746f6b656e20646f6573206e6f7420657869737400000000000060448201526064016104f2565b5060009081526010602052604090205490565b610883610bd5565b600d61049e8282611c66565b600e546001600160a01b031633146108f55760405162461bcd60e51b8152602060048201526024808201527f4f6e6c79206d61696e204e465420636f6e74726163742063616e2063616c6c206044820152637468697360e01b60648201526084016104f2565b600c8054908190600061090783611bd8565b91905055506109168482610f68565b60006109218361055c565b90506000816040516020016109369190611d26565b60405160208183030381529060405290506109518382610f82565b6000838152600f6020908152604080832080546001600160a01b0319166001600160a01b038a81169190911790915560109092528083208a9055519088169185918a917f622d1d28c81c1622c1194f8d132fbf1fc580cb75e5ca86dda9b7987c60fbe76491a450505050505050565b60006109cb82610f3c565b610a175760405162461bcd60e51b815260206004820152601a60248201527f4368696c6420746f6b656e20646f6573206e6f7420657869737400000000000060448201526064016104f2565b506000908152600f60205260409020546001600160a01b031690565b6001600160a01b03918216600090815260056020908152604080832093909416825291909152205460ff1690565b610a69610bd5565b6001600160a01b038116610a9357604051631e4fbdf760e01b8152600060048201526024016104f2565b610a9c81610c17565b50565b610aa882610f3c565b610af45760405162461bcd60e51b815260206004820152601c60248201527f55524920736574206f66206e6f6e6578697374656e7420746f6b656e0000000060448201526064016104f2565b6000828152600f60205260409020546001600160a01b0316331480610b235750600b546001600160a01b031633145b610b605760405162461bcd60e51b815260206004820152600e60248201526d139bdd08185d5d1a1bdc9a5e995960921b60448201526064016104f2565b61049e8282610f82565b60006001600160e01b03198216632483248360e11b14806103d257506103d282610fd2565b6000818152600260205260408120546001600160a01b0316806103d257604051637e27328960e01b8152600481018490526024016104f2565b61070f8383836001610ff7565b600b546001600160a01b031633146107d25760405163118cdaa760e01b81523360048201526024016104f2565b6000610c0f8484846110fd565b949350505050565b600b80546001600160a01b038381166001600160a01b0319831681179093556040519116919082907f8be0079c531659141344cd1fd0a4f28419497f9722a3daafe3b4186f6b6457e090600090a35050565b6001600160a01b038216610c9b57604051630b61174360e31b81526001600160a01b03831660048201526024016104f2565b6001600160a01b03838116600081815260056020908152604080832094871680845294825291829020805460ff191686151590811790915591519182527f17307eab39ab6107e8899845ad3d59bd9653f200f220920489ca2b5937696c31910160405180910390a3505050565b6001600160a01b0383163b15610e2c57604051630a85bd0160e11b81526001600160a01b0384169063150b7a0290610d4a908890889087908790600401611d63565b6020604051808303816000875af1925050508015610d85575060408051601f3d908101601f19168201909252610d8291810190611da0565b60015b610dee573d808015610db3576040519150601f19603f3d011682016040523d82523d6000602084013e610db8565b606091505b508051600003610de657604051633250574960e11b81526001600160a01b03851660048201526024016104f2565b805181602001fd5b6001600160e01b03198116630a85bd0160e11b14610e2a57604051633250574960e11b81526001600160a01b03851660048201526024016104f2565b505b5050505050565b6060610e3e82610b8f565b506000828152600a602052604081208054610e5890611b72565b80601f0160208091040260200160405190810160405280929190818152602001828054610e8490611b72565b8015610ed15780601f10610ea657610100808354040283529160200191610ed1565b820191906000526020600020905b815481529060010190602001808311610eb457829003601f168201915b505050505090506000610eef60408051602081019091526000815290565b90508051600003610f01575092915050565b815115610f33578082604051602001610f1b929190611dbd565b60405160208183030381529060405292505050919050565b610c0f846111ca565b6000600c54821080156103d25750506000908152600260205260409020546001600160a01b0316151590565b61049e82826040518060200160405280600081525061123f565b6000828152600a60205260409020610f9a8282611c66565b506040518281527ff8e1a15aba9398e019f0b49df1a4fde98ee17ae345cb5f6b5e2c27f5033e8ce79060200160405180910390a15050565b60006001600160e01b0319821663780e9d6360e01b14806103d257506103d282611257565b808061100b57506001600160a01b03821615155b156110cd57600061101b84610b8f565b90506001600160a01b038316158015906110475750826001600160a01b0316816001600160a01b031614155b801561105a57506110588184610a33565b155b156110835760405163a9fbf51f60e01b81526001600160a01b03841660048201526024016104f2565b81156110cb5783856001600160a01b0316826001600160a01b03167f8c5be1e5ebec7d5bd14f71427d1e84f3dd0314c0f7b2291e5b200ac8c7c3b92560405160405180910390a45b505b5050600090815260046020526040902080546001600160a01b0319166001600160a01b0392909216919091179055565b60008061110b8585856112a7565b90506001600160a01b0381166111685761116384600880546000838152600960205260408120829055600182018355919091527ff3f7a9fe364faab93b216da50a3214154f22a0a2b415b23a84c8169e8b636ee30155565b61118b565b846001600160a01b0316816001600160a01b03161461118b5761118b81856113a0565b6001600160a01b0385166111a7576111a284611421565b610c0f565b846001600160a01b0316816001600160a01b031614610c0f57610c0f85856114d0565b60606111d582610b8f565b5060006111ed60408051602081019091526000815290565b9050600081511161120d5760405180602001604052806000815250611238565b8061121784611520565b604051602001611228929190611dbd565b6040516020818303038152906040525b9392505050565b61124983836115b3565b61070f336000858585610d08565b60006001600160e01b031982166380ac58cd60e01b148061128857506001600160e01b03198216635b5e139f60e01b145b806103d257506301ffc9a760e01b6001600160e01b03198316146103d2565b6000828152600260205260408120546001600160a01b03908116908316156112d4576112d4818486611618565b6001600160a01b03811615611312576112f1600085600080610ff7565b6001600160a01b038116600090815260036020526040902080546000190190555b6001600160a01b03851615611341576001600160a01b0385166000908152600360205260409020805460010190555b60008481526002602052604080822080546001600160a01b0319166001600160a01b0389811691821790925591518793918516917fddf252ad1be2c89b69c2b068fc378daa952ba7f163c4a11628f55a4df523b3ef91a4949350505050565b60006113ab83610778565b6000838152600760209081526040808320546001600160a01b038816845260069092529091209192509081831461140257600083815260208281526040808320548584528184208190558352600790915290208290555b6000938452600760209081526040808620869055938552525081205550565b60085460009061143390600190611dec565b6000838152600960205260408120546008805493945090928490811061145b5761145b611bac565b90600052602060002001549050806008838154811061147c5761147c611bac565b60009182526020808320909101929092558281526009909152604080822084905585825281205560088054806114b4576114b4611dff565b6001900381819060005260206000200160009055905550505050565b600060016114dd84610778565b6114e79190611dec565b6001600160a01b039093166000908152600660209081526040808320868452825280832085905593825260079052919091209190915550565b6060600061152d8361167c565b600101905060008167ffffffffffffffff81111561154d5761154d611903565b6040519080825280601f01601f191660200182016040528015611577576020820181803683370190505b5090508181016020015b600019016f181899199a1a9b1b9c1cb0b131b232b360811b600a86061a8153600a850494508461158157509392505050565b6001600160a01b0382166115dd57604051633250574960e11b8152600060048201526024016104f2565b60006115eb83836000610c02565b90506001600160a01b0381161561070f576040516339e3563760e11b8152600060048201526024016104f2565b611623838383611754565b61070f576001600160a01b03831661165157604051637e27328960e01b8152600481018290526024016104f2565b60405163177e802f60e01b81526001600160a01b0383166004820152602481018290526044016104f2565b60008072184f03e93ff9f4daa797ed6e38ed64bf6a1f0160401b83106116bb5772184f03e93ff9f4daa797ed6e38ed64bf6a1f0160401b830492506040015b6d04ee2d6d415b85acef810000000083106116e7576d04ee2d6d415b85acef8100000000830492506020015b662386f26fc10000831061170557662386f26fc10000830492506010015b6305f5e100831061171d576305f5e100830492506008015b612710831061173157612710830492506004015b60648310611743576064830492506002015b600a83106103d25760010192915050565b60006001600160a01b03831615801590610c0f5750826001600160a01b0316846001600160a01b0316148061178e575061178e8484610a33565b80610c0f5750506000908152600460205260409020546001600160a01b03908116911614919050565b6001600160e01b031981168114610a9c57600080fd5b6000602082840312156117df57600080fd5b8135611238816117b7565b60005b838110156118055781810151838201526020016117ed565b50506000910152565b600081518084526118268160208601602086016117ea565b601f01601f19169290920160200192915050565b602081526000611238602083018461180e565b60006020828403121561185f57600080fd5b5035919050565b80356001600160a01b038116811461187d57600080fd5b919050565b6000806040838503121561189557600080fd5b61189e83611866565b946020939093013593505050565b6000602082840312156118be57600080fd5b61123882611866565b6000806000606084860312156118dc57600080fd5b6118e584611866565b92506118f360208501611866565b9150604084013590509250925092565b634e487b7160e01b600052604160045260246000fd5b600067ffffffffffffffff8084111561193457611934611903565b604051601f8501601f19908116603f0116810190828211818310171561195c5761195c611903565b8160405280935085815286868601111561197557600080fd5b858560208301376000602087830101525050509392505050565b600082601f8301126119a057600080fd5b61123883833560208501611919565b6000602082840312156119c157600080fd5b813567ffffffffffffffff8111156119d857600080fd5b610c0f8482850161198f565b600080604083850312156119f757600080fd5b611a0083611866565b915060208301358015158114611a1557600080fd5b809150509250929050565b60008060008060808587031215611a3657600080fd5b611a3f85611866565b9350611a4d60208601611866565b925060408501359150606085013567ffffffffffffffff811115611a7057600080fd5b8501601f81018713611a8157600080fd5b611a9087823560208401611919565b91505092959194509250565b60008060008060808587031215611ab257600080fd5b84359350611ac260208601611866565b9250611ad060408601611866565b9150606085013567ffffffffffffffff811115611aec57600080fd5b611a908782880161198f565b60008060408385031215611b0b57600080fd5b611b1483611866565b9150611b2260208401611866565b90509250929050565b60008060408385031215611b3e57600080fd5b82359150602083013567ffffffffffffffff811115611b5c57600080fd5b611b688582860161198f565b9150509250929050565b600181811c90821680611b8657607f821691505b602082108103611ba657634e487b7160e01b600052602260045260246000fd5b50919050565b634e487b7160e01b600052603260045260246000fd5b634e487b7160e01b600052601160045260246000fd5b600060018201611bea57611bea611bc2565b5060010190565b60008351611c038184602088016117ea565b6001600160f81b0319939093169190920190815260010192915050565b601f82111561070f57600081815260208120601f850160051c81016020861015611c475750805b601f850160051c820191505b81811015610e2a57828155600101611c53565b815167ffffffffffffffff811115611c8057611c80611903565b611c9481611c8e8454611b72565b84611c20565b602080601f831160018114611cc95760008415611cb15750858301515b600019600386901b1c1916600185901b178555610e2a565b600085815260208120601f198616915b82811015611cf857888601518255948401946001909101908401611cd9565b5085821015611d165787850151600019600388901b60f8161c191681555b5050505050600190811b01905550565b7468747470733a2f2f697066732e696f2f697066732f60581b815260008251611d568160158501602087016117ea565b9190910160150192915050565b6001600160a01b0385811682528416602082015260408101839052608060608201819052600090611d969083018461180e565b9695505050505050565b600060208284031215611db257600080fd5b8151611238816117b7565b60008351611dcf8184602088016117ea565b835190830190611de38183602088016117ea565b01949350505050565b818103818111156103d2576103d2611bc2565b634e487b7160e01b600052603160045260246000fdfea26469706673582212207a71cc03a16f31567b71ec9cd3e2549125dc7a4a9ca22b7bd0f282276a7d69a864736f6c63430008140033",
  "linkReferences": {},
  "deployedLinkReferences": {}
}